:020000040800F2
:1000000060040020DD0100082B1A0008FB13000823
:10001000291A0008E9020008E11A0008000000009F
:100020000000000000000000000000002F1A00087F
:10003000EB020008000000002D1A0008311A000829
:10004000F7010008F7010008F7010008F7010008B0
:10005000F7010008F7010008F7010008F7010008A0
:10006000F7010008F7010008F7010008F701000890
:10007000F7010008F7010008F7010008F701000880
:10008000F7010008F7010008F7010008F701000870
:10009000F7010008F7010008F7010008F701000860
:1000A000F7010008F7010008F7010008F701000850
:1000B000F7010008F7010008F7010008F701000840
:1000C000F701000809140008FD130008F7010008F3
:1000D000F7010008F7010008F7010008F701000820
:1000E000F7010008F7010008F7010008F701000810
:1000F000F7010008F7010008F7010008F701000800
:10010000F7010008F7010008F7010008F7010008EF
:10011000F7010008F7010008F7010008F7010008DF
:10012000F7010008F7010008F7010008F7010008CF
:10013000F7010008F7010008F7010008F7010008BF
:10014000F7010008F7010008F7010008F7010008AF
:10015000F7010008F7010008F7010008F70100089F
:10016000F7010008F7010008F7010008F70100088F
:10017000F7010008F7010008F7010008000000007F
:10018000F7010008F7010008F7010008F70100086F
:10019000F7010008F7010008F7010008F70100085F
:1001A000F7010008F7010008F7010008F70100084F
:1001B000F7010008F7010008F7010008F70100083F
:1001C000F7010008F7010008DFF80CD000F07AF81A
:1001D00000480047251B00086004002006488047AF
:1001E00006480047FEE7FEE7FEE7FEE7FEE7FEE71C
:1001F000FEE7FEE7FEE7FEE7D11A0008C9010008A6
:100200002DE9F05F0546002092469B46884606464B
:10021000814640241BE0284641464746224600F0DE
:1002200041F853465A46C01A914110D31146184618
:10023000224600F028F82D1A67EB01084F462246A7
:100240000120002100F01FF817EB00094E41201E8D
:10025000A4F10104DFDC484631462A464346BDE8A6
:10026000F09FD2B201E000F8012B491EFBD270478B
:100270000022F6E710B513460A4604461946FFF772
:10028000F0FF204610BD202A04DB203A00FA02F1DC
:10029000002070479140C2F1200320FA03F3194374
:1002A00090407047202A04DB203A21FA02F0002116
:1002B000704721FA02F3D040C2F120029140084376
:1002C00019467047064C074D06E0E06840F0010310
:1002D00094E8070098471034AC42F6D3FFF778FF54
:1002E000981B0008B81B0008FEE7704790F835100F
:1002F000022903D08021416501207047052180F843
:1003000035100068016821F001010160002070478C
:1003100090F83500704700002DE9F84F00224FF0AB
:1003200001094FF0030A4FF00F0E00BF0B6809FAE6
:1003300002F42340A34270D14D68012D05D0022D57
:1003400003D0112D01D0122D11D185685700CE6830
:100350000AFA07FC25EA0C05BE402E438660456874
:100360000E79A543C6F3001696402E434660C56835
:1003700056008F680AFA06F4A543B7402F43C760BA
:100380004D68022D01D0122D12D1D5080F694FEA08
:10039000427C00EB8505AB462D6A4FEADC6C0EFA19
:1003A0000CF807FA0CF725EA08052F43CBF8207064
:1003B0000D79076805F00305A743B5403D43056087
:1003C0004C68E40074D53D4C256845F480452560B3
:1003D000246822F00307960704F480440094384C04
:1003E000360F2744D7F80848DFF8D8C00EFA06F5CC
:1003F000604524EA050401D100252EE0324DA842D3
:1004000001D1012529E0314DA84201D1022524E086
:100410002F4DA84202D103251FE049E02D4DA842EF
:1004200001D1042519E02C4DA84201D1052514E085
:100430002A4DA84201D106250FE0294DA84201D13D
:1004400007250AE0274DA84201D1082505E0264DE1
:10045000A84201D1092500E00A25B540234E2543D5
:10046000C7F808584D683468ED0324EA030400D542
:100470001C431E4D34602D1D4E682C68B60324EAC3
:10048000030400D51C43194E2C6008364D683468AF
:10049000ED0224EA030400D51C43144D34600C35EE
:1004A0004E682C68B60224EA030400D51C432C6075
:1004B000521C102AFFF43AAFBDE8F88F44380240CE
:1004C00000300140000002400004024000080240E9
:1004D000000C0240001002400014024000180240CC
:1004E000001C02400020024000240240003C014069
:1004F00001488068704700000400002030B590F883
:100500004120202A24D190F84020012A20D0012324
:1005100080F84030242280F8412020230024026803
:10052000156825F0010515600268156825F48055E9
:100530001560026815680D43156001680A6842F08D
:1005400001020A6080F8413080F84040002030BD50
:10055000022030BD30B590F84120202A22D190F8F9
:100560004020012A1ED0012380F84030242280F848
:100570004120202400250268136823F00103136042
:100580000268136823F4706343EA01211160016873
:100590000A6842F001020A6080F8414080F8405049
:1005A000002030BD022030BD7047704730B4036872
:1005B0009A691968D243D40509D4CC43240606D4D9
:1005C000456C4FF4807445F001054564DC615305CA
:1005D0000AD4CB431B0607D4446C4FF4806344F029
:1005E000080444640468E36192050AD4C943090617
:1005F00007D4426C4FF4007142F002024264026878
:10060000D161416C11F00B0F02D030BC00F098BFEB
:1006100030BC70470268436B91691268002B00D0B0
:10062000184770477047000070B5040004D094F874
:100630004100002510B106E0012070BD204684F87D
:10064000405000F0E7F8242084F841002068016859
:1006500021F001010160D4E9001020F07060086110
:100660002068816821F400418160E06821680128E8
:10067000A06806D040F404408860E068022803D0F7
:1006800006E040F40040F7E721684FF4006048605E
:1006900020212068114A4368134343602068C268E0
:1006A00022F40042C26054F8106B0DCC104340EAB3
:1006B0000320F06054F81C3CD4E900021043186099
:1006C00054F81C0D026842F001020260656484F86F
:1006D0004110256384F84250002070BD0080000264
:1006E0002DE9FC47002604461F469246019689469E
:1006F00090F8410020287AD120688069C043000426
:100700007FD594F8400001287BD0012184F8401067
:1007100024204FF0200884F841006664E068012836
:1007200010D029F4544040F4205021684860FFF76D
:10073000DFFE0546206881698269C1F34010C2F37B
:10074000001114E03049314A49EA01001040ECE759
:10075000781C05D0FFF7CCFE401BB84219D8C7B1B2
:10076000206882698169C2F34010C1F30011084317
:10077000EED0206880693B464FF000024FF0200128
:10078000C0430095C006204616D501F0FEF860BBB8
:1007900008E084F84180606C84F8406040F02000FC
:1007A000606422E02168C1F81C8084F84180002048
:1007B00084F84060BDE8FC8701F0E7F8A8B921683B
:1007C0001020C8612168C1F81C800198504512D1E1
:1007D0002068416841F48041416000223B4620216D
:1007E0002046009501F0D1F810B10120E2E708E0C1
:1007F0002168C1F81C800198401C019050458DD3A0
:10080000C7E70220D6E7000000200002FF23000215
:100810007047000010B586B0044614216846FFF703
:1008200027FD1A49206888422ED11948016841F0F5
:100830002001016000681221012200F020000590D3
:10084000032004238DE80700CDE90303114869461E
:10085000FFF762FD0E481030016841F4800101602D
:1008600000680022114600F480000590212000F06D
:100870006FF8212000F05EF800222220114600F0DF
:1008800067F8222000F056F806B010BD005800406E
:1008900030380240001402407047704702488168B7
:1008A000027811448160704704000020032010B5D5
:1008B00000F06EF8002000F005F800F023F80020AA
:1008C00010BD000070B50D4D04464FF47A700C4A0F
:1008D00029781268B0FBF1F0B2FBF0F000F07AFD7D
:1008E00048B9102C07D200222146501E00F030F8E3
:1008F00000206C6070BD012070BD0000040000206D
:10090000100000200A4808B5016841F080510160DC
:10091000006800F0805000900548001D016841F417
:1009200080410160006800F48040009008BD000034
:1009300040380240002809DB410900F01F0289000D
:10094000012001F1E0219040C1F800017047000052
:100950000E4BF0B41B680D46C3F30223C3F1070628
:10096000042E00D90426191D072901D2002300E016
:10097000DB1E012404FA06F19C40491E2940641E36
:10098000994014402143F0BC01F0ABB80CED00E0FD
:10099000064900F0070210B54FF6FF040868044B43
:1009A000204040EA02201843086010BD0CED00E032
:1009B0000000FA050248016841F480710160704747
:1009C000007000402DE9F84F04460078DFF82494C9
:1009D0004FF000063746C0070ED0D9F8001021F4BA
:1009E0000001C9F80010D9F80010626B1143C9F872
:1009F0000010606B00B90126FE4D206884350003AD
:100A00000ED5E16B286820F4401008432860E06BA5
:100A1000B0F5801F01D010B102E0012600E00127EF
:100A200020684FF4800BC0020CD5216C286820F49C
:100A3000400008432860206C584501D1012601E0A0
:100A400000B901272068C10100D50126800666D5BE
:100A5000E8483830016841F0805101600068DFF8F3
:100A600098A300F080500090DAF8001041F48071F3
:100A7000CAF80010FFF73CFD804605E0FFF738FD9F
:100A8000A0EB080064287DD8DAF80000C005F5D591
:100A9000DFF8608308F16808D8F8000010F44070AF
:100AA0002AD0218E01F44071814225D0D8F800105F
:100AB000D8F8002021F4407142F48032C8F80020B8
:100AC000D8F8002022F48032C8F80020C8F80010BE
:100AD000D8F80000C0070FD0FFF70AFD824607E0F4
:100AE000FFF706FDA0EB0A0141F288308142CAD827
:100AF000D8F800008007F3D5206BC0F3012103294B
:100B00007ED0D9F8001021F4F811C9F80010228E17
:100B1000D8F80010C2F30B021143C8F80010207877
:100B2000C00607D5286820F0807028602868A16B6F
:100B3000084328602188AF488830490405D5626E93
:100B4000016821F44031114301602188090405D571
:100B5000A26E016821F44021114301602168C9039C
:100B600005D5E26E016821F440111143016021684E
:100B7000890305D5226F016821F44001114301600A
:100B8000217800E016E1490605D5626C016821F084
:100B90000301114301602178090605D5A26C0168A3
:100BA00021F00C01114301602188C90505D5E26CD3
:100BB000016821F03001114301602188890505D5C4
:100BC000226D016821F0C0011143016021884905AF
:100BD00005D5626D016821F44071114301602188DF
:100BE000090505D5A26D016821F44061114301603A
:100BF0002188C90407D5E26D016821F4405100E065
:100C00004AE0114301602188890405D5226E0168FC
:100C100021F44041114301602168490205D5A26FCA
:100C2000016821F080611143016021684FF0006A82
:100C3000890209D5E26F016821F00061114301606A
:100C4000E16F514500D1012721680A0700D501272E
:100C5000490305D5626F016821F0407111430160BD
:100C60002168090206D5D4F88020016821F080515E
:100C700011430160DFF88491012E02D020688001C9
:100C80007ED5D9F800004E4620F08060C9F80000FB
:100C9000FFF72EFC80460FE0594AD9F8003010408B
:100CA00023F4F8120243C9F8002030E7FFF720FCD4
:100CB000A0EB080064287DD830680001F6D42178C4
:100CC0004C487C30C90712D0616B81B9237A6268C5
:100CD0000168D0F800C09201C1F3014142EA01422B
:100CE000CCF3036142EA016141EA037101602168CA
:100CF0000A0303D5E26BB2F5801F04D0C9021AD5EE
:100D0000216C594517D16368016894F80CC00268DA
:100D10009B01C1F3014143EA0141C2F3027241EA7E
:100D20000C6141EA027101602968626A21F01F01C9
:100D3000521E114329602168C90110D5238A6268B7
:100D40000168D0F800C09201C1F3036142EA034296
:100D500042EA0162CCF3027142EA0171016021684A
:100D600089010CD56168228A237B94F808C0890127
:100D700041EA024141EA036141EA0C71016000E08D
:100D800011E03168B04641F080613160FFF7B0FB9F
:100D9000064604E0FFF7ACFB801B64280AD8D8F8AD
:100DA00000000001F6D56FB3D9F800004E4620F0E0
:100DB000805000E07BE0C9F80000FFF799FB074690
:100DC00005E000BFFFF794FBC01B64286FD83068B4
:100DD000C0438000F6D50748216880300A0301D55A
:100DE000E26B1AB1C90225D5216C19BB6369016890
:100DF000277E08E0083802400070004000380240BA
:100E0000FFFCFF0F5AE00268C1F301419B0143EA76
:100E10000143C2F3027143EA076242EA01710160D1
:100E200029686FF0FF03A26A21F4F85103EB022254
:100E3000114329602168890212D5E16F51450FD114
:100E4000238C6269016807689201C1F3036142EA79
:100E5000034242EA0162C7F3027142EA0171016092
:100E60002178090716D561690268D0F800C08B01A6
:100E7000277FC2F30362CCF3014143EA014141EA17
:100E8000026141EA077101602868E16A20F440309C
:100E900008432860306840F080503060FFF728FB3E
:100EA000044607E0FFF724FB001B642802D9032057
:100EB000BDE8F88F3068C0438000F3D40020F7E726
:100EC0002DE9F04705000F4663D0444E306800F02E
:100ED0000F00B84209D2306820F00F00384330606C
:100EE000306800F00F00B84253D128683C4C8107AD
:100EF00012D5400703D5206840F4E05020602878E0
:100F0000000703D5206840F460402060A96820688D
:100F100020F0F000084320602878C0072AD030492C
:100F200068680839012810D00968022810D089079C
:100F300000292EDA216821F0030101432160FFF727
:100F4000D7FA804641F288390DE009688903EFE756
:100F50008901EDE7FFF7CCFAA0EB0801494502D97A
:100F60000320BDE8F0876868216801F00C01B1EB4F
:100F7000800FEFD1306800F00F00B8420BD9306815
:100F800020F00F0038433060306800F00F00B842A6
:100F900001D00120E5E72878400705D5E9682068F9
:100FA00020F4E050084320602878000706D528691F
:100FB000216821F4604141EAC000206000F018F887
:100FC0002168084AC1F30311515CC8400649086012
:100FD00006480068FFF776FC0020C2E7003C0240AC
:100FE00008380240881B000810000020080000207C
:100FF000154910B51548096811F00C0213D04110BD
:10100000042A0FD0082A0ED10F4C241F226823680F
:1010100002F03F025B0207D52068C0F38810A0FBF6
:10102000010106E0084610BD2168C1F38811A1FB4B
:1010300000010023FFF7E4F82168C1F30141491CD6
:101040004900B0FBF1F010BD083802400024F40064
:101050002DE9F84F04004FF000076ED02078DFF83C
:1010600068A3AAF10408C007A8F104054CD0DAF877
:1010700000105046C1F38101012908D00068C0F377
:10108000810002280AD1D8F80000400206D528685D
:10109000800339D560680028DFD035E06068B0F59E
:1010A000803F0BD010B1B0F5A02F11D0286820F4EC
:1010B00080302860286820F4802002E0286840F40E
:1010C00080302860606890B1FFF712FA06460AE0A7
:1010D000286840F480202860F0E700BFFFF708FA96
:1010E000801B642872D828688003F7D50CE0FFF7CE
:1010F000FFF9064605E000BFFFF7FAF9801B6428F8
:10110000F0D828688003F7D42078800742D5DAF831
:101110000010504611F00C0F08D00068C0F3810099
:1011200002280BD1D8F80000400207D428688007B5
:1011300018D5E068012800D114E041E1E0680028FA
:10114000286817D040F001002860FFF7D1F9064663
:1011500005E000BFFFF7CCF9801B0228C2D8286841
:101160008007F7D52069296821F0F80141EAC0001D
:1011700028600FE020F001002860FFF7B9F906466B
:1011800005E000BFFFF7B4F9801B02281ED82868CD
:101190008007F7D42078000729D58B4861696C3027
:1011A00000298146016812D041F001010160FFF77A
:1011B0009FF9064605E000BFFFF79AF9801B022859
:1011C00004D8D9F800008007F6D510E089E021F0B6
:1011D00001010160FFF78CF9064604E0FFF788F98A
:1011E000801B02287DD8D9F800008007F6D420782B
:1011F00040076BD5DFF8D09109F13809D9F8000024
:10120000C0000BD4D9F8001041F08051C9F800108B
:10121000D9F80000012700F0805000906B48016869
:10122000C90512D40168834641F480710160FFF75B
:101230005FF9064605E000BFFFF75AF9801B6428F6
:101240004FD8DBF80000C005F6D55F4EA0686836C1
:1012500001280AD008B1052811D0306820F001001B
:101260003060306820F0040002E0306840F0010097
:101270003060A068A0B1FFF73BF983460CE030680E
:1012800040F004003060F0E7FFF732F9A0EB0B010B
:1012900041F28830814266D830688007F4D50EE08C
:1012A000FFF726F9834607E0FFF722F9A0EB0B01D1
:1012B00041F28830814256D830688007F4D42FB18B
:1012C000D9F8001021F08051C9F80010A069C8B306
:1012D000DAF80010C1F3810102294BD002282868F6
:1012E00000E040E020F08070286003D0FFF700F9B4
:1012F00004463BE0FFF7FCF8064604E0FFF7F8F889
:10130000801B02282FD828688001F7D4D4E909620D
:10131000D4E907012E4B570894F82C20084303EB1F
:10132000074343EA8611084340EA026040F0005058
:10133000C8F80000286840F080702860FFF7D8F8EF
:10134000044606E03EE000BFFFF7D2F8001B02288B
:1013500009D828688001F7D534E000BFFFF7C8F846
:10136000001B022802D90320BDE8F88F28688001FD
:10137000F4D427E00128D8F8000021D0E16900F476
:1013800080028A421CD1216A00F03F028A4217D1B2
:10139000626A47F6C0710140B1EB821F10D1A16AA9
:1013A0004FF0FF3200F4403302EB5101B3EB014F39
:1013B00006D194F82C1000F07060B0EB016F01D0F2
:1013C0000120D1E70020CFE708380240007000403C
:1013D0000000FFFF401EB0F1807F10B501D3012057
:1013E00010BD4FF0E02460610F21601700F079FB21
:1013F0000020A0610721216110BDFEE70148FFF731
:10140000D5B80000140000200148FFF703B9000020
:1014100014000020806B0021826B02B11165C26B49
:1014200002B1116500F09CBACA074FF028034FF0D3
:10143000000210B506D090F84140422233EA04047D
:1014400000D0F2228C0707D590F8414042F04402C8
:10145000A34301D042F0B0020B0401D542F0B80220
:10146000102904D0202905D0402906D007E042F0F9
:10147000900204E042F0200201E042F040020068E5
:1014800001689143016010BD01688A69D2439207E7
:1014900001D400228A6200688169C943C90703D068
:1014A000816941F00101816170472DE9F0470446EF
:1014B00090F841002822002508218243206804D0AA
:1014C000C16184F84050BDE8F087876986694FF0B4
:1014D000FE088268D0F80CC04FF40049E36808EABF
:1014E00016460CF0FE08022BC7F30047C2F30902B0
:1014F00007D049462046FFF797FF324684F8405010
:1015000010E0062306F0060603EAD2139E420ED12F
:10151000A36C5B1CA364A36C022BD4D1A564C16132
:1015200084F8405039462046FFF73FF8CBE749465C
:101530002046FFF779FF424684F84050F2E700006A
:1015400070B53A4A044690F84100002584F84250AC
:10155000E2626585626C282842EA010262641FD05B
:1015600029281DD02A281BD048F203012046FFF766
:101570005BFF94F84100602802D0202084F84100ED
:101580006563A16B206B2A4E19B1112812D0212856
:1015900010D0E16BF1B3122824D0222822D03EE0F3
:1015A00003212046FFF740FF22492820616384F889
:1015B0004100E6E720680168490403D5016821F489
:1015C00080410160A06BFEF7A3FE012827D0A06B2D
:1015D000066584F84050A06BFEF788FE002823D0F3
:1015E000A06B16E020680168090403D5016821F4A6
:1015F00000410160E06BFEF78BFE01280FD0E06B2D
:10160000066584F84050E06BFEF770FE00280BD0B2
:10161000E06B00E003E0016DBDE870400847204644
:10162000BDE8704000F09CB970BD00000000FFFFF5
:10163000151400084118000870B50446164AC8433E
:10164000002541074FF02000E262256384F8410045
:1016500084F84250656311D42068616A406A08705A
:10166000606A401C6062208D40B1618D401E208503
:10167000491E6185606C40F00400606448F203011B
:101680002046FFF7D1FE21681020C861204684F86B
:101690004050FFF7BDF870BD0000FFFF2DE9F0419D
:1016A000026820270446156890F841000E46D7616D
:1016B000212806D0292804D0222809D02A2807D09A
:1016C0000DE048F201012046FFF7AEFE212005E0C3
:1016D00048F202012046FFF7A7FE2220206320687F
:1016E0003849426842F400424260206842680A4039
:1016F00042602046FFF7C8FEE843410406D4206854
:10170000016821F480410160A06B07E0000409D466
:101710002068016821F400410160E06B10B10068AD
:1017200040686085F04340070FD4206826F0040627
:10173000616A406A0870606A401C6062208D20B156
:10174000618D401E2085491E6185608D18B1606CD9
:1017500040F004006064002584F84250606C6563CA
:1017600068B1616C2046FFF7EBFE94F84100282831
:1017700015D131462046BDE8F041FFF75DBFE06A74
:10178000114EB0420DD0204600F020F8E66284F8F9
:1017900041702563204684F84050FFF739F8BDE8D2
:1017A000F08194F8410084F8417022282563204696
:1017B00084F8405002D0FFF770F8F0E7FFF76CF8BC
:1017C000EDE7000000E800FE0000FFFF70B50446F2
:1017D00000680025016884F84250C9434A0403D4D4
:1017E000016821F4804104E0090403D4016821F474
:1017F0000041016094F841102820292911D094F863
:1018000041102A290CD1222184F8410021630221B0
:101810002046FFF709FE204684F84050FFF73CF8C9
:1018200070BD212184F84100216301212046FFF78A
:10183000FBFD204684F84050FFF72FF870BD0000F4
:101840002DE9F041044690F840008846E56A0128F9
:1018500026D06FEA0807012084F84000B9066FEA35
:10186000020605D4B00603D441462046FFF716FF12
:101870003A49F8064FF0807231D4F0062FD4638DC8
:10188000102083B12168C861606C40F0040060647E
:101890000DB195425ED1616C2046FFF751FE59E0D3
:1018A0000220BDE8F08194F84120282A02D1B5F148
:1018B000007F04D094F84120292A05D00CE041464D
:1018C0002046FFF7B9FE45E08D4205D02168C8618A
:1018D0002046FFF7D9FD3AE02168C8613AE0780771
:1018E00015D4700713D4608D60B12068626A406AB5
:1018F0001070606A401C6062208D401E2085608DE3
:10190000401E6085608D28BB8D4220D122E03807C3
:1019100006D4300704D441462046FFF7C6FD19E03F
:10192000B80717D4B00715D4608D68B1606A216814
:1019300000788862606A401C6062608D401E60852D
:10194000208D401E208505E0954200D015B9204627
:10195000FFF73CFF002084F84000A2E70000FFFFF3
:1019600010B590F841200021602A05D0016380F86D
:101970004010FEF757FE10BD202280F84120016381
:1019800080F84010FEF710FE10BD2DE9F0411D4615
:1019900017460E460446DDF8188008E0681C06D09D
:1019A000FEF7A6FDA0EB0800A8420BD855B12068B1
:1019B000806936EA000013D00020B842EED0002043
:1019C000BDE8F081626C002084F84000202142F0E4
:1019D0002002626484F8411084F842000120EFE79D
:1019E0000120EAE70E48002110B50C4C01230D4AF6
:1019F0000460C0E90121C0E9033141618161C16135
:101A00000162FEF711FE06480021FEF777FDBDE8F2
:101A1000104003480021FEF79DBD00000058004023
:101A2000140000202B11E600FEE770477047704756
:101A3000FEF734BF70B5B4B0302121A8FEF718FC12
:101A400014212DA8FEF714FC84216846FEF710FC33
:101A5000FEF7B0FF1C48016841F08051016000684A
:101A600000F0805032901948016821F4404141F45F
:101A70008041016000680024102100F44040329051
:101A8000022521950120CDE92754CDE9240129A97A
:101A900008224823032681E86C0021A8FFF7D8FA22
:101AA000E9020F20CDE92F4131940221CDE92D0526
:101AB0002DA8FFF705FAA8031A9400906846FEF7D0
:101AC00081FF34B070BD000040380240007000401B
:101AD0000248016841F470010160704788ED00E040
:101AE000FEE7090700284FEA116104DB00F1E0205E
:101AF00080F80014704700F00F0000F1E02080F83B
:101B0000141D704702E008C8121F08C1002AFAD14C
:101B100070477047002001E001C1121F002AFBD16D
:101B20007047000008B5FEF7C1FEFFF783FF1348BA
:101B3000016841F004010160016801F004010091B5
:101B4000016841F020010160016801F0200100916D
:101B5000016841F080010160006800F080000090A1
:101B6000FFF740FF064D012406480A230222F02118
:101B7000FEF7B6FD0028F7D12C70F5E730380240AB
:101B80000000002014000020000000000000000001
:101B90000102030406070809B81B00080000002022
:101BA00014000000041B0008CC1B000814000020D7
:101BB0004C040000141B000800000000010000009D
:0C1BC00010000000000000000024F400F1
:04000005080001C925
:00000001FF
